{
  "contractName": "CoalConcession",
  "abi": [
    {
      "inputs": [],
      "stateMutability": "nonpayable",
      "type": "constructor"
    },
    {
      "anonymous": false,
      "inputs": [
        {
          "indexed": true,
          "internalType": "uint256",
          "name": "id",
          "type": "uint256"
        },
        {
          "indexed": true,
          "internalType": "address",
          "name": "owner",
          "type": "address"
        },
        {
          "indexed": false,
          "internalType": "string",
          "name": "location",
          "type": "string"
        }
      ],
      "name": "ConcessionGranted",
      "type": "event"
    },
    {
      "anonymous": false,
      "inputs": [
        {
          "indexed": true,
          "internalType": "uint256",
          "name": "id",
          "type": "uint256"
        },
        {
          "indexed": false,
          "internalType": "enum CoalConcession.Status",
          "name": "newStatus",
          "type": "uint8"
        }
      ],
      "name": "ConcessionStatusChanged",
      "type": "event"
    },
    {
      "anonymous": false,
      "inputs": [
        {
          "indexed": true,
          "internalType": "uint256",
          "name": "concessionId",
          "type": "uint256"
        },
        {
          "indexed": false,
          "internalType": "uint256",
          "name": "tons",
          "type": "uint256"
        },
        {
          "indexed": false,
          "internalType": "string",
          "name": "batchId",
          "type": "string"
        }
      ],
      "name": "ExtractionRecorded",
      "type": "event"
    },
    {
      "anonymous": false,
      "inputs": [
        {
          "indexed": false,
          "internalType": "address",
          "name": "oldRegulator",
          "type": "address"
        },
        {
          "indexed": false,
          "internalType": "address",
          "name": "newRegulator",
          "type": "address"
        }
      ],
      "name": "RegulatorTransferred",
      "type": "event"
    },
    {
      "inputs": [
        {
          "internalType": "uint256",
          "name": "",
          "type": "uint256"
        }
      ],
      "name": "allConcessionIds",
      "outputs": [
        {
          "internalType": "uint256",
          "name": "",
          "type": "uint256"
        }
      ],
      "stateMutability": "view",
      "type": "function",
      "constant": true
    },
    {
      "inputs": [
        {
          "internalType": "uint256",
          "name": "",
          "type": "uint256"
        }
      ],
      "name": "concessions",
      "outputs": [
        {
          "internalType": "uint256",
          "name": "id",
          "type": "uint256"
        },
        {
          "internalType": "string",
          "name": "mongoId",
          "type": "string"
        },
        {
          "internalType": "address",
          "name": "owner",
          "type": "address"
        },
        {
          "internalType": "string",
          "name": "location",
          "type": "string"
        },
        {
          "internalType": "uint256",
          "name": "areaHectares",
          "type": "uint256"
        },
        {
          "internalType": "uint256",
          "name": "maxExtractionTons",
          "type": "uint256"
        },
        {
          "internalType": "uint256",
          "name": "extractedTons",
          "type": "uint256"
        },
        {
          "internalType": "enum CoalConcession.Status",
          "name": "status",
          "type": "uint8"
        },
        {
          "internalType": "uint256",
          "name": "issuedAt",
          "type": "uint256"
        },
        {
          "internalType": "uint256",
          "name": "expiresAt",
          "type": "uint256"
        },
        {
          "internalType": "string",
          "name": "licenseHash",
          "type": "string"
        }
      ],
      "stateMutability": "view",
      "type": "function",
      "constant": true
    },
    {
      "inputs": [
        {
          "internalType": "uint256",
          "name": "",
          "type": "uint256"
        },
        {
          "internalType": "uint256",
          "name": "",
          "type": "uint256"
        }
      ],
      "name": "extractionHistory",
      "outputs": [
        {
          "internalType": "uint256",
          "name": "concessionId",
          "type": "uint256"
        },
        {
          "internalType": "uint256",
          "name": "tons",
          "type": "uint256"
        },
        {
          "internalType": "uint256",
          "name": "timestamp",
          "type": "uint256"
        },
        {
          "internalType": "address",
          "name": "recorder",
          "type": "address"
        },
        {
          "internalType": "string",
          "name": "batchId",
          "type": "string"
        }
      ],
      "stateMutability": "view",
      "type": "function",
      "constant": true
    },
    {
      "inputs": [
        {
          "internalType": "address",
          "name": "",
          "type": "address"
        },
        {
          "internalType": "uint256",
          "name": "",
          "type": "uint256"
        }
      ],
      "name": "ownerConcessions",
      "outputs": [
        {
          "internalType": "uint256",
          "name": "",
          "type": "uint256"
        }
      ],
      "stateMutability": "view",
      "type": "function",
      "constant": true
    },
    {
      "inputs": [],
      "name": "regulator",
      "outputs": [
        {
          "internalType": "address",
          "name": "",
          "type": "address"
        }
      ],
      "stateMutability": "view",
      "type": "function",
      "constant": true
    },
    {
      "inputs": [
        {
          "internalType": "address",
          "name": "owner",
          "type": "address"
        },
        {
          "internalType": "string",
          "name": "mongoId",
          "type": "string"
        },
        {
          "internalType": "string",
          "name": "location",
          "type": "string"
        },
        {
          "internalType": "uint256",
          "name": "areaHectares",
          "type": "uint256"
        },
        {
          "internalType": "uint256",
          "name": "maxExtractionTons",
          "type": "uint256"
        },
        {
          "internalType": "uint256",
          "name": "durationDays",
          "type": "uint256"
        },
        {
          "internalType": "string",
          "name": "licenseHash",
          "type": "string"
        }
      ],
      "name": "grantConcession",
      "outputs": [
        {
          "internalType": "uint256",
          "name": "",
          "type": "uint256"
        }
      ],
      "stateMutability": "nonpayable",
      "type": "function"
    },
    {
      "inputs": [
        {
          "internalType": "uint256",
          "name": "concessionId",
          "type": "uint256"
        },
        {
          "internalType": "uint256",
          "name": "tons",
          "type": "uint256"
        },
        {
          "internalType": "string",
          "name": "batchId",
          "type": "string"
        }
      ],
      "name": "recordExtraction",
      "outputs": [],
      "stateMutability": "nonpayable",
      "type": "function"
    },
    {
      "inputs": [
        {
          "internalType": "uint256",
          "name": "concessionId",
          "type": "uint256"
        },
        {
          "internalType": "enum CoalConcession.Status",
          "name": "newStatus",
          "type": "uint8"
        }
      ],
      "name": "updateStatus",
      "outputs": [],
      "stateMutability": "nonpayable",
      "type": "function"
    },
    {
      "inputs": [
        {
          "internalType": "address",
          "name": "newRegulator",
          "type": "address"
        }
      ],
      "name": "transferRegulator",
      "outputs": [],
      "stateMutability": "nonpayable",
      "type": "function"
    },
    {
      "inputs": [
        {
          "internalType": "uint256",
          "name": "id",
          "type": "uint256"
        }
      ],
      "name": "getConcession",
      "outputs": [
        {
          "components": [
            {
              "internalType": "uint256",
              "name": "id",
              "type": "uint256"
            },
            {
              "internalType": "string",
              "name": "mongoId",
              "type": "string"
            },
            {
              "internalType": "address",
              "name": "owner",
              "type": "address"
            },
            {
              "internalType": "string",
              "name": "location",
              "type": "string"
            },
            {
              "internalType": "uint256",
              "name": "areaHectares",
              "type": "uint256"
            },
            {
              "internalType": "uint256",
              "name": "maxExtractionTons",
              "type": "uint256"
            },
            {
              "internalType": "uint256",
              "name": "extractedTons",
              "type": "uint256"
            },
            {
              "internalType": "enum CoalConcession.Status",
              "name": "status",
              "type": "uint8"
            },
            {
              "internalType": "uint256",
              "name": "issuedAt",
              "type": "uint256"
            },
            {
              "internalType": "uint256",
              "name": "expiresAt",
              "type": "uint256"
            },
            {
              "internalType": "string",
              "name": "licenseHash",
              "type": "string"
            }
          ],
          "internalType": "struct CoalConcession.Concession",
          "name": "",
          "type": "tuple"
        }
      ],
      "stateMutability": "view",
      "type": "function",
      "constant": true
    },
    {
      "inputs": [
        {
          "internalType": "address",
          "name": "owner",
          "type": "address"
        }
      ],
      "name": "getOwnerConcessions",
      "outputs": [
        {
          "internalType": "uint256[]",
          "name": "",
          "type": "uint256[]"
        }
      ],
      "stateMutability": "view",
      "type": "function",
      "constant": true
    },
    {
      "inputs": [
        {
          "internalType": "uint256",
          "name": "concessionId",
          "type": "uint256"
        }
      ],
      "name": "getExtractionHistory",
      "outputs": [
        {
          "components": [
            {
              "internalType": "uint256",
              "name": "concessionId",
              "type": "uint256"
            },
            {
              "internalType": "uint256",
              "name": "tons",
              "type": "uint256"
            },
            {
              "internalType": "uint256",
              "name": "timestamp",
              "type": "uint256"
            },
            {
              "internalType": "address",
              "name": "recorder",
              "type": "address"
            },
            {
              "internalType": "string",
              "name": "batchId",
              "type": "string"
            }
          ],
          "internalType": "struct CoalConcession.ExtractionRecord[]",
          "name": "",
          "type": "tuple[]"
        }
      ],
      "stateMutability": "view",
      "type": "function",
      "constant": true
    },
    {
      "inputs": [],
      "name": "getAllConcessionIds",
      "outputs": [
        {
          "internalType": "uint256[]",
          "name": "",
          "type": "uint256[]"
        }
      ],
      "stateMutability": "view",
      "type": "function",
      "constant": true
    },
    {
      "inputs": [],
      "name": "getTotalConcessions",
      "outputs": [
        {
          "internalType": "uint256",
          "name": "",
          "type": "uint256"
        }
      ],
      "stateMutability": "view",
      "type": "function",
      "constant": true
    }
  ],
  "bytecode": "0x608060405234801561001057600080fd5b50600080546001600160a01b03191633178155600155611b98806100356000396000f3fe608060405234801561001057600080fd5b50600436106100ea5760003560e01c8063c938aa821161008c578063e056673c11610066578063e056673c14610204578063e3880e6d14610224578063f04ccec114610244578063ff7a088d1461024c57600080fd5b8063c938aa821461019c578063dd8fee14146101c6578063dec66e02146101f157600080fd5b80632ab6b0eb116100c85780632ab6b0eb1461014a5780633a1b3d311461015d5780636c1acae5146101705780637d69be6b1461019457600080fd5b80630a6ba684146100ef57806315e04e64146101155780632a8628331461012a575b600080fd5b6101026100fd3660046113be565b61025f565b6040519081526020015b60405180910390f35b6101286101233660046113e8565b610290565b005b61013d6101383660046113e8565b610374565b60405161010c919061140a565b61010261015836600461144e565b6103e0565b61012861016b366004611467565b610401565b61018361017e36600461149b565b6104ca565b60405161010c959493929190611503565b600154610102565b6101af6101aa36600461144e565b6105b0565b60405161010c9b9a99989796959493929190611579565b6000546101d9906001600160a01b031681565b6040516001600160a01b03909116815260200161010c565b6101286101ff366004611653565b6107b7565b61021761021236600461144e565b610af8565b60405161010c91906116a6565b61023761023236600461144e565b610d93565b60405161010c919061177b565b61013d610ecc565b61010261025a366004611819565b610f24565b6003602052816000526040600020818154811061027b57600080fd5b90600052602060002001600091509150505481565b6000546001600160a01b031633146102c35760405162461bcd60e51b81526004016102ba906118e3565b60405180910390fd5b6001600160a01b03811661030b5760405162461bcd60e51b815260206004820152600f60248201526e496e76616c6964206164647265737360881b60448201526064016102ba565b600054604080516001600160a01b03928316815291831660208301527f61f882a94f82b2320c40cfb427c749a9dddc05a0c583c27a0d87d1820505e89b910160405180910390a1600080546001600160a01b0319166001600160a01b0392909216919091179055565b6001600160a01b0381166000908152600360209081526040918290208054835181840281018401909452808452606093928301828280156103d457602002820191906000526020600020905b8154815260200190600101908083116103c0575b50505050509050919050565b600581815481106103f057600080fd5b600091825260209091200154905081565b6000546001600160a01b0316331461042b5760405162461bcd60e51b81526004016102ba906118e3565b8160008111801561043e57506001548111155b61045a5760405162461bcd60e51b81526004016102ba9061190a565b6000838152600260205260409020600701805483919060ff1916600183600481111561048857610488611541565b0217905550827f0f2e3e41d3bbfd9847271a329c91e25fc440d2c23dc38a2966f261421d998d6b836040516104bd9190611938565b60405180910390a2505050565b600460205281600052604060002081815481106104e657600080fd5b60009182526020909120600590910201805460018201546002830154600384015460048501805494975092955090936001600160a01b039091169290919061052d9061194c565b80601f01602080910402602001604051908101604052809291908181526020018280546105599061194c565b80156105a65780601f1061057b576101008083540402835291602001916105a6565b820191906000526020600020905b81548152906001019060200180831161058957829003601f168201915b5050505050905085565b600260205260009081526040902080546001820180549192916105d29061194c565b80601f01602080910402602001604051908101604052809291908181526020018280546105fe9061194c565b801561064b5780601f106106205761010080835404028352916020019161064b565b820191906000526020600020905b81548152906001019060200180831161062e57829003601f168201915b505050600284015460038501805494956001600160a01b039092169491935091506106759061194c565b80601f01602080910402602001604051908101604052809291908181526020018280546106a19061194c565b80156106ee5780601f106106c3576101008083540402835291602001916106ee565b820191906000526020600020905b8154815290600101906020018083116106d157829003601f168201915b5050505050908060040154908060050154908060060154908060070160009054906101000a900460ff169080600801549080600901549080600a0180546107349061194c565b80601f01602080910402602001604051908101604052809291908181526020018280546107609061194c565b80156107ad5780601f10610782576101008083540402835291602001916107ad565b820191906000526020600020905b81548152906001019060200180831161079057829003601f168201915b505050505090508b565b836000811180156107ca57506001548111155b6107e65760405162461bcd60e51b81526004016102ba9061190a565b6000858152600260208190526040909120908101546001600160a01b031633148061081b57506000546001600160a01b031633145b6108585760405162461bcd60e51b815260206004820152600e60248201526d139bdd08185d5d1a1bdc9a5e995960921b60448201526064016102ba565b6001600782015460ff16600481111561087357610873611541565b146108b85760405162461bcd60e51b8152602060048201526015602482015274436f6e63657373696f6e206e6f742061637469766560581b60448201526064016102ba565b80600901544211156109015760405162461bcd60e51b815260206004820152601260248201527110dbdb98d95cdcda5bdb88195e1c1a5c995960721b60448201526064016102ba565b80600501548582600601546109169190611996565b11156109545760405162461bcd60e51b815260206004820152600d60248201526c457863656564732071756f746160981b60448201526064016102ba565b848160060160008282546109689190611996565b92505081905550600460008781526020019081526020016000206040518060a00160405280888152602001878152602001428152602001336001600160a01b0316815260200186868080601f016020809104026020016040519081016040528093929190818152602001838380828437600092018290525093909452505083546001808201865594825260209182902084516005909202019081559083015193810193909355506040810151600283015560608101516003830180546001600160a01b0319166001600160a01b0390921691909117905560808101519091906004820190610a569082611a0a565b505050857fbba7835e0a04c6692f318a560444d394df5887eece15ddeddb2fd554726c494c868686604051610a8d93929190611af3565b60405180910390a28060050154816006015410610af05760078101805460ff1916600390811790915560405187917f0f2e3e41d3bbfd9847271a329c91e25fc440d2c23dc38a2966f261421d998d6b91610ae79190611938565b60405180910390a25b505050505050565b610b0061132e565b81600081118015610b1357506001548111155b610b2f5760405162461bcd60e51b81526004016102ba9061190a565b600260008481526020019081526020016000206040518061016001604052908160008201548152602001600182018054610b689061194c565b80601f0160208091040260200160405190810160405280929190818152602001828054610b949061194c565b8015610be15780601f10610bb657610100808354040283529160200191610be1565b820191906000526020600020905b815481529060010190602001808311610bc457829003601f168201915b505050918352505060028201546001600160a01b03166020820152600382018054604090920191610c119061194c565b80601f0160208091040260200160405190810160405280929190818152602001828054610c3d9061194c565b8015610c8a5780601f10610c5f57610100808354040283529160200191610c8a565b820191906000526020600020905b815481529060010190602001808311610c6d57829003601f168201915b505050918352505060048281015460208301526005830154604083015260068301546060830152600783015460809092019160ff1690811115610ccf57610ccf611541565b6004811115610ce057610ce0611541565b81526020016008820154815260200160098201548152602001600a82018054610d089061194c565b80601f0160208091040260200160405190810160405280929190818152602001828054610d349061194c565b8015610d815780601f10610d5657610100808354040283529160200191610d81565b820191906000526020600020905b815481529060010190602001808311610d6457829003601f168201915b50505050508152505091505b50919050565b606060046000838152602001908152602001600020805480602002602001604051908101604052809291908181526020016000905b82821015610ec15760008481526020908190206040805160a081018252600586029092018054835260018101549383019390935260028301549082015260038201546001600160a01b03166060820152600482018054919291608084019190610e309061194c565b80601f0160208091040260200160405190810160405280929190818152602001828054610e5c9061194c565b8015610ea95780601f10610e7e57610100808354040283529160200191610ea9565b820191906000526020600020905b815481529060010190602001808311610e8c57829003601f168201915b50505050508152505081526020019060010190610dc8565b505050509050919050565b60606005805480602002602001604051908101604052809291908181526020018280548015610f1a57602002820191906000526020600020905b815481526020019060010190808311610f06575b5050505050905090565b600080546001600160a01b03163314610f4f5760405162461bcd60e51b81526004016102ba906118e3565b6001600160a01b038b16610f955760405162461bcd60e51b815260206004820152600d60248201526c24b73b30b634b21037bbb732b960991b60448201526064016102ba565b60008611610fdd5760405162461bcd60e51b815260206004820152601560248201527441726561206d75737420626520706f73697469766560581b60448201526064016102ba565b6000851161102d5760405162461bcd60e51b815260206004820152601f60248201527f4d61782065787472616374696f6e206d75737420626520706f7369746976650060448201526064016102ba565b6000841161107d5760405162461bcd60e51b815260206004820152601960248201527f4475726174696f6e206d75737420626520706f7369746976650000000000000060448201526064016102ba565b6001805490600061108d83611b16565b9190505550600060015490506040518061016001604052808281526020018c8c8080601f0160208091040260200160405190810160405280939291908181526020018383808284376000920191909152505050908252506001600160a01b038e1660208083019190915260408051601f8d0183900483028101830182528c8152920191908c908c90819084018382808284376000920182905250938552505050602082018a90526040820189905260608201526080016001815242602082015260400161115d8762015180611b2f565b6111679042611996565b815260200185858080601f0160208091040260200160405190810160405280939291908181526020018383808284376000920182905250939094525050838152600260209081526040909120835181559083015190915060018201906111cd9082611a0a565b5060408201516002820180546001600160a01b0319166001600160a01b03909216919091179055606082015160038201906112089082611a0a565b506080820151816004015560a0820151816005015560c0820151816006015560e08201518160070160006101000a81548160ff0219169083600481111561125157611251611541565b021790555061010082015160088201556101208201516009820155610140820151600a8201906112819082611a0a565b5050506001600160a01b038c1660008181526003602090815260408083208054600181810183559185529284209092018590556005805492830181559092527f036b6384b5eca791c62761152d0c79bb0604c104a5fb6f4eb0703f3154bb3db0018390555182907f0af15c5356f258f347752a6fa71554c2921ff36bf4fd389cc6fc8f6bcd7228be90611317908d908d90611b46565b60405180910390a39b9a5050505050505050505050565b604051806101600160405280600081526020016060815260200160006001600160a01b03168152602001606081526020016000815260200160008152602001600081526020016000600481111561138757611387611541565b81526020016000815260200160008152602001606081525090565b80356001600160a01b03811681146113b957600080fd5b919050565b600080604083850312156113d157600080fd5b6113da836113a2565b946020939093013593505050565b6000602082840312156113fa57600080fd5b611403826113a2565b9392505050565b6020808252825182820181905260009190848201906040850190845b8181101561144257835183529284019291840191600101611426565b50909695505050505050565b60006020828403121561146057600080fd5b5035919050565b6000806040838503121561147a57600080fd5b8235915060208301356005811061149057600080fd5b809150509250929050565b600080604083850312156114ae57600080fd5b50508035926020909101359150565b6000815180845260005b818110156114e3576020818501810151868301820152016114c7565b506000602082860101526020601f19601f83011685010191505092915050565b85815284602082015283604082015260018060a01b038316606082015260a06080820152600061153660a08301846114bd565b979650505050505050565b634e487b7160e01b600052602160045260246000fd5b6005811061157557634e487b7160e01b600052602160045260246000fd5b9052565b60006101608d83528060208401526115938184018e6114bd565b6001600160a01b038d166040850152838103606085015290506115b6818c6114bd565b90508960808401528860a08401528760c08401526115d760e0840188611557565b85610100840152846101208401528281036101408401526115f881856114bd565b9e9d5050505050505050505050505050565b60008083601f84011261161c57600080fd5b50813567ffffffffffffffff81111561163457600080fd5b60208301915083602082850101111561164c57600080fd5b9250929050565b6000806000806060858703121561166957600080fd5b8435935060208501359250604085013567ffffffffffffffff81111561168e57600080fd5b61169a8782880161160a565b95989497509550505050565b6020815281516020820152600060208301516101608060408501526116cf6101808501836114bd565b915060408501516116eb60608601826001600160a01b03169052565b506060850151601f198086850301608087015261170884836114bd565b9350608087015160a087015260a087015160c087015260c087015160e087015260e0870151915061010061173e81880184611557565b870151610120878101919091528701516101408088019190915287015186850390910183870152905061177183826114bd565b9695505050505050565b60006020808301818452808551808352604092508286019150828160051b87010184880160005b8381101561180b57888303603f19018552815180518452878101518885015286810151878501526060808201516001600160a01b03169085015260809081015160a0918501829052906117f7818601836114bd565b9689019694505050908601906001016117a2565b509098975050505050505050565b60008060008060008060008060008060e08b8d03121561183857600080fd5b6118418b6113a2565b995060208b013567ffffffffffffffff8082111561185e57600080fd5b61186a8e838f0161160a565b909b50995060408d013591508082111561188357600080fd5b61188f8e838f0161160a565b909950975060608d0135965060808d0135955060a08d0135945060c08d01359150808211156118bd57600080fd5b506118ca8d828e0161160a565b915080935050809150509295989b9194979a5092959850565b6020808252600d908201526c2737ba103932b3bab630ba37b960991b604082015260600190565b60208082526014908201527310dbdb98d95cdcda5bdb881b9bdd08199bdd5b9960621b604082015260600190565b602081016119468284611557565b92915050565b600181811c9082168061196057607f821691505b602082108103610d8d57634e487b7160e01b600052602260045260246000fd5b634e487b7160e01b600052601160045260246000fd5b8082018082111561194657611946611980565b634e487b7160e01b600052604160045260246000fd5b601f821115611a0557600081815260208120601f850160051c810160208610156119e65750805b601f850160051c820191505b81811015610af0578281556001016119f2565b505050565b815167ffffffffffffffff811115611a2457611a246119a9565b611a3881611a32845461194c565b846119bf565b602080601f831160018114611a6d5760008415611a555750858301515b600019600386901b1c1916600185901b178555610af0565b600085815260208120601f198616915b82811015611a9c57888601518255948401946001909101908401611a7d565b5085821015611aba5787850151600019600388901b60f8161c191681555b5050505050600190811b01905550565b81835281816020850137506000828201602090810191909152601f909101601f19169091010190565b838152604060208201526000611b0d604083018486611aca565b95945050505050565b600060018201611b2857611b28611980565b5060010190565b808202811582820484141761194657611946611980565b602081526000611b5a602083018486611aca565b94935050505056fea2646970667358221220c0fdf7bf17a36625c74cfa3b7f3de43d410f54b5b4d8329e2df1601f3c000a9964736f6c63430008130033",
  "immutableReferences": {},
  "source": "// SPDX-License-Identifier: MIT\npragma solidity ^0.8.19;\n\ncontract CoalConcession {\n    enum Status { Pending, Active, Suspended, Expired, Revoked }\n\n    struct Concession {\n        uint256 id;\n        string mongoId;\n        address owner;\n        string location;\n        uint256 areaHectares;\n        uint256 maxExtractionTons;\n        uint256 extractedTons;\n        Status status;\n        uint256 issuedAt;\n        uint256 expiresAt;\n        string licenseHash;\n    }\n\n    struct ExtractionRecord {\n        uint256 concessionId;\n        uint256 tons;\n        uint256 timestamp;\n        address recorder;\n        string batchId;\n    }\n\n    address public regulator;\n    uint256 private nextId;\n    \n    mapping(uint256 => Concession) public concessions;\n    mapping(address => uint256[]) public ownerConcessions;\n    mapping(uint256 => ExtractionRecord[]) public extractionHistory;\n    uint256[] public allConcessionIds;\n\n    event ConcessionGranted(uint256 indexed id, address indexed owner, string location);\n    event ConcessionStatusChanged(uint256 indexed id, Status newStatus);\n    event ExtractionRecorded(uint256 indexed concessionId, uint256 tons, string batchId);\n    event RegulatorTransferred(address oldRegulator, address newRegulator);\n\n    modifier onlyRegulator() {\n        require(msg.sender == regulator, \"Not regulator\");\n        _;\n    }\n\n    modifier concessionExists(uint256 id) {\n        require(id > 0 && id <= nextId, \"Concession not found\");\n        _;\n    }\n\n    constructor() {\n        regulator = msg.sender;\n        nextId = 0;\n    }\n\n    function grantConcession(\n        address owner,\n        string calldata mongoId,\n        string calldata location,\n        uint256 areaHectares,\n        uint256 maxExtractionTons,\n        uint256 durationDays,\n        string calldata licenseHash\n    ) external onlyRegulator returns (uint256) {\n        require(owner != address(0), \"Invalid owner\");\n        require(areaHectares > 0, \"Area must be positive\");\n        require(maxExtractionTons > 0, \"Max extraction must be positive\");\n        require(durationDays > 0, \"Duration must be positive\");\n\n        nextId++;\n        uint256 id = nextId;\n\n        concessions[id] = Concession({\n            id: id,\n            mongoId: mongoId,\n            owner: owner,\n            location: location,\n            areaHectares: areaHectares,\n            maxExtractionTons: maxExtractionTons,\n            extractedTons: 0,\n            status: Status.Active,\n            issuedAt: block.timestamp,\n            expiresAt: block.timestamp + (durationDays * 1 days),\n            licenseHash: licenseHash\n        });\n\n        ownerConcessions[owner].push(id);\n        allConcessionIds.push(id);\n\n        emit ConcessionGranted(id, owner, location);\n        return id;\n    }\n\n    function recordExtraction(\n        uint256 concessionId,\n        uint256 tons,\n        string calldata batchId\n    ) external concessionExists(concessionId) {\n        Concession storage c = concessions[concessionId];\n        require(\n            msg.sender == c.owner || msg.sender == regulator,\n            \"Not authorized\"\n        );\n        require(c.status == Status.Active, \"Concession not active\");\n        require(block.timestamp <= c.expiresAt, \"Concession expired\");\n        require(c.extractedTons + tons <= c.maxExtractionTons, \"Exceeds quota\");\n\n        c.extractedTons += tons;\n\n        extractionHistory[concessionId].push(ExtractionRecord({\n            concessionId: concessionId,\n            tons: tons,\n            timestamp: block.timestamp,\n            recorder: msg.sender,\n            batchId: batchId\n        }));\n\n        emit ExtractionRecorded(concessionId, tons, batchId);\n\n        if (c.extractedTons >= c.maxExtractionTons) {\n            c.status = Status.Expired;\n            emit ConcessionStatusChanged(concessionId, Status.Expired);\n        }\n    }\n\n    function updateStatus(uint256 concessionId, Status newStatus)\n        external\n        onlyRegulator\n        concessionExists(concessionId)\n    {\n        concessions[concessionId].status = newStatus;\n        emit ConcessionStatusChanged(concessionId, newStatus);\n    }\n\n    function transferRegulator(address newRegulator) external onlyRegulator {\n        require(newRegulator != address(0), \"Invalid address\");\n        emit RegulatorTransferred(regulator, newRegulator);\n        regulator = newRegulator;\n    }\n\n    function getConcession(uint256 id) external view concessionExists(id) returns (Concession memory) {\n        return concessions[id];\n    }\n\n    function getOwnerConcessions(address owner) external view returns (uint256[] memory) {\n        return ownerConcessions[owner];\n    }\n\n    function getExtractionHistory(uint256 concessionId) external view returns (ExtractionRecord[] memory) {\n        return extractionHistory[concessionId];\n    }\n\n    function getAllConcessionIds() external view returns (uint256[] memory) {\n        return allConcessionIds;\n    }\n\n    function getTotalConcessions() external view returns (uint256) {\n        return nextId;\n    }\n}\n",
  "sourcePath": "/home/shrilakshmi/Documents/coal-mining/contracts/CoalConcession.sol",
  "compiler": {
    "name": "solc",
    "version": "0.8.19+commit.7dd6d404.Emscripten.clang"
  },
  "schemaVersion": "3.4.16",
  "updatedAt": "2026-04-27T07:08:43.260Z",
  "networkType": "ethereum",
  "devdoc": {
    "kind": "dev",
    "methods": {},
    "version": 1
  },
  "userdoc": {
    "kind": "user",
    "methods": {},
    "version": 1
  }
}