{
  "contractName": "TruckTracking",
  "abi": [
    {
      "inputs": [],
      "stateMutability": "nonpayable",
      "type": "constructor"
    },
    {
      "anonymous": false,
      "inputs": [
        {
          "indexed": true,
          "internalType": "uint256",
          "name": "alertId",
          "type": "uint256"
        }
      ],
      "name": "AlertResolved",
      "type": "event"
    },
    {
      "anonymous": false,
      "inputs": [
        {
          "indexed": true,
          "internalType": "uint256",
          "name": "shipmentId",
          "type": "uint256"
        },
        {
          "indexed": false,
          "internalType": "string",
          "name": "location",
          "type": "string"
        },
        {
          "indexed": false,
          "internalType": "bool",
          "name": "tonsMatch",
          "type": "bool"
        }
      ],
      "name": "CheckpointScanned",
      "type": "event"
    },
    {
      "anonymous": false,
      "inputs": [
        {
          "indexed": true,
          "internalType": "uint256",
          "name": "id",
          "type": "uint256"
        },
        {
          "indexed": false,
          "internalType": "uint256",
          "name": "finalTons",
          "type": "uint256"
        }
      ],
      "name": "ShipmentDelivered",
      "type": "event"
    },
    {
      "anonymous": false,
      "inputs": [
        {
          "indexed": true,
          "internalType": "uint256",
          "name": "id",
          "type": "uint256"
        },
        {
          "indexed": false,
          "internalType": "string",
          "name": "truckMongoId",
          "type": "string"
        },
        {
          "indexed": false,
          "internalType": "uint256",
          "name": "authorizedTons",
          "type": "uint256"
        }
      ],
      "name": "ShipmentDispatched",
      "type": "event"
    },
    {
      "anonymous": false,
      "inputs": [
        {
          "indexed": true,
          "internalType": "uint256",
          "name": "alertId",
          "type": "uint256"
        },
        {
          "indexed": true,
          "internalType": "uint256",
          "name": "shipmentId",
          "type": "uint256"
        },
        {
          "indexed": false,
          "internalType": "enum TruckTracking.AlertSeverity",
          "name": "severity",
          "type": "uint8"
        }
      ],
      "name": "TheftAlertRaised",
      "type": "event"
    },
    {
      "anonymous": false,
      "inputs": [
        {
          "indexed": true,
          "internalType": "uint256",
          "name": "id",
          "type": "uint256"
        },
        {
          "indexed": false,
          "internalType": "string",
          "name": "plateNumber",
          "type": "string"
        },
        {
          "indexed": false,
          "internalType": "address",
          "name": "operator",
          "type": "address"
        }
      ],
      "name": "TruckRegistered",
      "type": "event"
    },
    {
      "inputs": [
        {
          "internalType": "uint256",
          "name": "",
          "type": "uint256"
        }
      ],
      "name": "alerts",
      "outputs": [
        {
          "internalType": "uint256",
          "name": "id",
          "type": "uint256"
        },
        {
          "internalType": "uint256",
          "name": "shipmentId",
          "type": "uint256"
        },
        {
          "internalType": "enum TruckTracking.AlertSeverity",
          "name": "severity",
          "type": "uint8"
        },
        {
          "internalType": "string",
          "name": "reason",
          "type": "string"
        },
        {
          "internalType": "uint256",
          "name": "expectedTons",
          "type": "uint256"
        },
        {
          "internalType": "uint256",
          "name": "reportedTons",
          "type": "uint256"
        },
        {
          "internalType": "uint256",
          "name": "raisedAt",
          "type": "uint256"
        },
        {
          "internalType": "bool",
          "name": "resolved",
          "type": "bool"
        },
        {
          "internalType": "address",
          "name": "raisedBy",
          "type": "address"
        }
      ],
      "stateMutability": "view",
      "type": "function",
      "constant": true
    },
    {
      "inputs": [
        {
          "internalType": "uint256",
          "name": "",
          "type": "uint256"
        }
      ],
      "name": "allAlertIds",
      "outputs": [
        {
          "internalType": "uint256",
          "name": "",
          "type": "uint256"
        }
      ],
      "stateMutability": "view",
      "type": "function",
      "constant": true
    },
    {
      "inputs": [
        {
          "internalType": "uint256",
          "name": "",
          "type": "uint256"
        }
      ],
      "name": "allShipmentIds",
      "outputs": [
        {
          "internalType": "uint256",
          "name": "",
          "type": "uint256"
        }
      ],
      "stateMutability": "view",
      "type": "function",
      "constant": true
    },
    {
      "inputs": [
        {
          "internalType": "uint256",
          "name": "",
          "type": "uint256"
        },
        {
          "internalType": "uint256",
          "name": "",
          "type": "uint256"
        }
      ],
      "name": "checkpoints",
      "outputs": [
        {
          "internalType": "uint256",
          "name": "shipmentId",
          "type": "uint256"
        },
        {
          "internalType": "string",
          "name": "location",
          "type": "string"
        },
        {
          "internalType": "uint256",
          "name": "reportedTons",
          "type": "uint256"
        },
        {
          "internalType": "uint256",
          "name": "timestamp",
          "type": "uint256"
        },
        {
          "internalType": "address",
          "name": "scanner",
          "type": "address"
        },
        {
          "internalType": "bool",
          "name": "tonsMatch",
          "type": "bool"
        },
        {
          "internalType": "string",
          "name": "notes",
          "type": "string"
        }
      ],
      "stateMutability": "view",
      "type": "function",
      "constant": true
    },
    {
      "inputs": [
        {
          "internalType": "string",
          "name": "",
          "type": "string"
        }
      ],
      "name": "plateToTruckId",
      "outputs": [
        {
          "internalType": "uint256",
          "name": "",
          "type": "uint256"
        }
      ],
      "stateMutability": "view",
      "type": "function",
      "constant": true
    },
    {
      "inputs": [],
      "name": "regulator",
      "outputs": [
        {
          "internalType": "address",
          "name": "",
          "type": "address"
        }
      ],
      "stateMutability": "view",
      "type": "function",
      "constant": true
    },
    {
      "inputs": [
        {
          "internalType": "uint256",
          "name": "",
          "type": "uint256"
        },
        {
          "internalType": "uint256",
          "name": "",
          "type": "uint256"
        }
      ],
      "name": "shipmentAlerts",
      "outputs": [
        {
          "internalType": "uint256",
          "name": "",
          "type": "uint256"
        }
      ],
      "stateMutability": "view",
      "type": "function",
      "constant": true
    },
    {
      "inputs": [
        {
          "internalType": "uint256",
          "name": "",
          "type": "uint256"
        }
      ],
      "name": "shipments",
      "outputs": [
        {
          "internalType": "uint256",
          "name": "shipmentId",
          "type": "uint256"
        },
        {
          "internalType": "uint256",
          "name": "concessionBlockchainId",
          "type": "uint256"
        },
        {
          "internalType": "string",
          "name": "truckMongoId",
          "type": "string"
        },
        {
          "internalType": "uint256",
          "name": "authorizedTons",
          "type": "uint256"
        },
        {
          "internalType": "string",
          "name": "originLocation",
          "type": "string"
        },
        {
          "internalType": "string",
          "name": "destinationLocation",
          "type": "string"
        },
        {
          "internalType": "string",
          "name": "sealHash",
          "type": "string"
        },
        {
          "internalType": "uint256",
          "name": "dispatchedAt",
          "type": "uint256"
        },
        {
          "internalType": "uint256",
          "name": "deliveredAt",
          "type": "uint256"
        },
        {
          "internalType": "enum TruckTracking.ShipmentStatus",
          "name": "status",
          "type": "uint8"
        }
      ],
      "stateMutability": "view",
      "type": "function",
      "constant": true
    },
    {
      "inputs": [
        {
          "internalType": "uint256",
          "name": "",
          "type": "uint256"
        }
      ],
      "name": "trucks",
      "outputs": [
        {
          "internalType": "uint256",
          "name": "id",
          "type": "uint256"
        },
        {
          "internalType": "string",
          "name": "plateNumber",
          "type": "string"
        },
        {
          "internalType": "address",
          "name": "operator",
          "type": "address"
        },
        {
          "internalType": "string",
          "name": "mongoId",
          "type": "string"
        },
        {
          "internalType": "bool",
          "name": "active",
          "type": "bool"
        },
        {
          "internalType": "uint256",
          "name": "registeredAt",
          "type": "uint256"
        }
      ],
      "stateMutability": "view",
      "type": "function",
      "constant": true
    },
    {
      "inputs": [
        {
          "internalType": "string",
          "name": "plateNumber",
          "type": "string"
        },
        {
          "internalType": "address",
          "name": "operator",
          "type": "address"
        },
        {
          "internalType": "string",
          "name": "mongoId",
          "type": "string"
        }
      ],
      "name": "registerTruck",
      "outputs": [
        {
          "internalType": "uint256",
          "name": "",
          "type": "uint256"
        }
      ],
      "stateMutability": "nonpayable",
      "type": "function"
    },
    {
      "inputs": [
        {
          "internalType": "uint256",
          "name": "truckId",
          "type": "uint256"
        },
        {
          "internalType": "bool",
          "name": "active",
          "type": "bool"
        }
      ],
      "name": "setTruckActive",
      "outputs": [],
      "stateMutability": "nonpayable",
      "type": "function"
    },
    {
      "inputs": [
        {
          "internalType": "uint256",
          "name": "concessionBlockchainId",
          "type": "uint256"
        },
        {
          "internalType": "string",
          "name": "truckMongoId",
          "type": "string"
        },
        {
          "internalType": "uint256",
          "name": "authorizedTons",
          "type": "uint256"
        },
        {
          "internalType": "string",
          "name": "originLocation",
          "type": "string"
        },
        {
          "internalType": "string",
          "name": "destinationLocation",
          "type": "string"
        },
        {
          "internalType": "string",
          "name": "sealHash",
          "type": "string"
        }
      ],
      "name": "dispatchShipment",
      "outputs": [
        {
          "internalType": "uint256",
          "name": "",
          "type": "uint256"
        }
      ],
      "stateMutability": "nonpayable",
      "type": "function"
    },
    {
      "inputs": [
        {
          "internalType": "uint256",
          "name": "shipmentId",
          "type": "uint256"
        },
        {
          "internalType": "string",
          "name": "location",
          "type": "string"
        },
        {
          "internalType": "uint256",
          "name": "reportedTons",
          "type": "uint256"
        },
        {
          "internalType": "string",
          "name": "notes",
          "type": "string"
        }
      ],
      "name": "recordCheckpoint",
      "outputs": [],
      "stateMutability": "nonpayable",
      "type": "function"
    },
    {
      "inputs": [
        {
          "internalType": "uint256",
          "name": "shipmentId",
          "type": "uint256"
        },
        {
          "internalType": "uint256",
          "name": "finalTons",
          "type": "uint256"
        }
      ],
      "name": "confirmDelivery",
      "outputs": [],
      "stateMutability": "nonpayable",
      "type": "function"
    },
    {
      "inputs": [
        {
          "internalType": "uint256",
          "name": "shipmentId",
          "type": "uint256"
        },
        {
          "internalType": "enum TruckTracking.AlertSeverity",
          "name": "severity",
          "type": "uint8"
        },
        {
          "internalType": "string",
          "name": "reason",
          "type": "string"
        }
      ],
      "name": "raiseManualAlert",
      "outputs": [],
      "stateMutability": "nonpayable",
      "type": "function"
    },
    {
      "inputs": [
        {
          "internalType": "uint256",
          "name": "alertId",
          "type": "uint256"
        }
      ],
      "name": "resolveAlert",
      "outputs": [],
      "stateMutability": "nonpayable",
      "type": "function"
    },
    {
      "inputs": [
        {
          "internalType": "uint256",
          "name": "id",
          "type": "uint256"
        }
      ],
      "name": "getShipment",
      "outputs": [
        {
          "components": [
            {
              "internalType": "uint256",
              "name": "shipmentId",
              "type": "uint256"
            },
            {
              "internalType": "uint256",
              "name": "concessionBlockchainId",
              "type": "uint256"
            },
            {
              "internalType": "string",
              "name": "truckMongoId",
              "type": "string"
            },
            {
              "internalType": "uint256",
              "name": "authorizedTons",
              "type": "uint256"
            },
            {
              "internalType": "string",
              "name": "originLocation",
              "type": "string"
            },
            {
              "internalType": "string",
              "name": "destinationLocation",
              "type": "string"
            },
            {
              "internalType": "string",
              "name": "sealHash",
              "type": "string"
            },
            {
              "internalType": "uint256",
              "name": "dispatchedAt",
              "type": "uint256"
            },
            {
              "internalType": "uint256",
              "name": "deliveredAt",
              "type": "uint256"
            },
            {
              "internalType": "enum TruckTracking.ShipmentStatus",
              "name": "status",
              "type": "uint8"
            }
          ],
          "internalType": "struct TruckTracking.Manifest",
          "name": "",
          "type": "tuple"
        }
      ],
      "stateMutability": "view",
      "type": "function",
      "constant": true
    },
    {
      "inputs": [
        {
          "internalType": "uint256",
          "name": "shipmentId",
          "type": "uint256"
        }
      ],
      "name": "getCheckpoints",
      "outputs": [
        {
          "components": [
            {
              "internalType": "uint256",
              "name": "shipmentId",
              "type": "uint256"
            },
            {
              "internalType": "string",
              "name": "location",
              "type": "string"
            },
            {
              "internalType": "uint256",
              "name": "reportedTons",
              "type": "uint256"
            },
            {
              "internalType": "uint256",
              "name": "timestamp",
              "type": "uint256"
            },
            {
              "internalType": "address",
              "name": "scanner",
              "type": "address"
            },
            {
              "internalType": "bool",
              "name": "tonsMatch",
              "type": "bool"
            },
            {
              "internalType": "string",
              "name": "notes",
              "type": "string"
            }
          ],
          "internalType": "struct TruckTracking.Checkpoint[]",
          "name": "",
          "type": "tuple[]"
        }
      ],
      "stateMutability": "view",
      "type": "function",
      "constant": true
    },
    {
      "inputs": [
        {
          "internalType": "uint256",
          "name": "shipmentId",
          "type": "uint256"
        }
      ],
      "name": "getShipmentAlerts",
      "outputs": [
        {
          "internalType": "uint256[]",
          "name": "",
          "type": "uint256[]"
        }
      ],
      "stateMutability": "view",
      "type": "function",
      "constant": true
    },
    {
      "inputs": [
        {
          "internalType": "uint256",
          "name": "alertId",
          "type": "uint256"
        }
      ],
      "name": "getAlert",
      "outputs": [
        {
          "components": [
            {
              "internalType": "uint256",
              "name": "id",
              "type": "uint256"
            },
            {
              "internalType": "uint256",
              "name": "shipmentId",
              "type": "uint256"
            },
            {
              "internalType": "enum TruckTracking.AlertSeverity",
              "name": "severity",
              "type": "uint8"
            },
            {
              "internalType": "string",
              "name": "reason",
              "type": "string"
            },
            {
              "internalType": "uint256",
              "name": "expectedTons",
              "type": "uint256"
            },
            {
              "internalType": "uint256",
              "name": "reportedTons",
              "type": "uint256"
            },
            {
              "internalType": "uint256",
              "name": "raisedAt",
              "type": "uint256"
            },
            {
              "internalType": "bool",
              "name": "resolved",
              "type": "bool"
            },
            {
              "internalType": "address",
              "name": "raisedBy",
              "type": "address"
            }
          ],
          "internalType": "struct TruckTracking.TheftAlert",
          "name": "",
          "type": "tuple"
        }
      ],
      "stateMutability": "view",
      "type": "function",
      "constant": true
    },
    {
      "inputs": [],
      "name": "getAllShipmentIds",
      "outputs": [
        {
          "internalType": "uint256[]",
          "name": "",
          "type": "uint256[]"
        }
      ],
      "stateMutability": "view",
      "type": "function",
      "constant": true
    },
    {
      "inputs": [],
      "name": "getAllAlertIds",
      "outputs": [
        {
          "internalType": "uint256[]",
          "name": "",
          "type": "uint256[]"
        }
      ],
      "stateMutability": "view",
      "type": "function",
      "constant": true
    },
    {
      "inputs": [
        {
          "internalType": "uint256",
          "name": "truckId",
          "type": "uint256"
        }
      ],
      "name": "getTruckById",
      "outputs": [
        {
          "components": [
            {
              "internalType": "uint256",
              "name": "id",
              "type": "uint256"
            },
            {
              "internalType": "string",
              "name": "plateNumber",
              "type": "string"
            },
            {
              "internalType": "address",
              "name": "operator",
              "type": "address"
            },
            {
              "internalType": "string",
              "name": "mongoId",
              "type": "string"
            },
            {
              "internalType": "bool",
              "name": "active",
              "type": "bool"
            },
            {
              "internalType": "uint256",
              "name": "registeredAt",
              "type": "uint256"
            }
          ],
          "internalType": "struct TruckTracking.Truck",
          "name": "",
          "type": "tuple"
        }
      ],
      "stateMutability": "view",
      "type": "function",
      "constant": true
    },
    {
      "inputs": [],
      "name": "getTotals",
      "outputs": [
        {
          "internalType": "uint256",
          "name": "totalTrucks",
          "type": "uint256"
        },
        {
          "internalType": "uint256",
          "name": "totalShipments",
          "type": "uint256"
        },
        {
          "internalType": "uint256",
          "name": "totalAlerts",
          "type": "uint256"
        }
      ],
      "stateMutability": "view",
      "type": "function",
      "constant": true
    }
  ],
  "bytecode": "0x608060405234801561001057600080fd5b50600080546001600160a01b03191633179055613044806100326000396000f3fe608060405234801561001057600080fd5b50600436106101585760003560e01c80639c5bc898116100c3578063e037b4811161007c578063e037b48114610386578063e30c745514610399578063e37ce500146103b9578063ef848300146103cc578063f796a343146103df578063fc1a6b21146103f257600080fd5b80639c5bc898146102d2578063cb47c549146102fd578063cd36ae8514610310578063d36e2e4214610323578063d534b65914610348578063dd8fee141461035b57600080fd5b80636897591c116101155780636897591c146102275780636c0156e5146102475780637792d35f1461026857806384e10a901461027b578063850818861461029f578063875b3887146102bf57600080fd5b8063092b37401461015d578063171d073a146101865780632ac08a93146101ae5780632e0e053f146101d75780633307602e146101ec57806349dcc20414610201575b600080fd5b61017061016b366004612451565b6103fa565b60405161017d91906124da565b60405180910390f35b610199610194366004612451565b61070e565b60405161017d999897969594939291906125ba565b6101c16101bc366004612451565b6107f1565b60405161017d9a99989796959493929190612620565b6101ea6101e5366004612451565b610a63565b005b6101f4610b23565b60405161017d91906126af565b61021461020f3660046126f3565b610b7b565b60405161017d9796959493929190612715565b61023a610235366004612451565b610cfd565b60405161017d9190612773565b61025a610255366004612451565b610eda565b60405190815260200161017d565b61025a610276366004612451565b610efb565b6001546002546003546040805193845260208401929092529082015260600161017d565b6102b26102ad366004612451565b610f0b565b60405161017d9190612839565b6101ea6102cd3660046128cc565b61109e565b61025a6102e0366004612917565b805160208183018101805160058252928201919093012091525481565b6101f461030b366004612451565b61113d565b61025a61031e366004612a11565b61119f565b610336610331366004612451565b611433565b60405161017d96959493929190612aa2565b61025a6103563660046126f3565b61158b565b60005461036e906001600160a01b031681565b6040516001600160a01b03909116815260200161017d565b61025a610394366004612af2565b6115bc565b6103ac6103a7366004612451565b6118a1565b60405161017d9190612bcc565b6101ea6103c7366004612c48565b611ab8565b6101ea6103da366004612ca8565b611b98565b6101ea6103ed3660046126f3565b611f30565b6101f461214f565b610402612386565b8160008111801561041557506002548111155b61043a5760405162461bcd60e51b815260040161043190612d2b565b60405180910390fd5b6006600084815260200190815260200160002060405180610140016040529081600082015481526020016001820154815260200160028201805461047d90612d57565b80601f01602080910402602001604051908101604052809291908181526020018280546104a990612d57565b80156104f65780601f106104cb576101008083540402835291602001916104f6565b820191906000526020600020905b8154815290600101906020018083116104d957829003601f168201915b505050505081526020016003820154815260200160048201805461051990612d57565b80601f016020809104026020016040519081016040528092919081815260200182805461054590612d57565b80156105925780601f1061056757610100808354040283529160200191610592565b820191906000526020600020905b81548152906001019060200180831161057557829003601f168201915b505050505081526020016005820180546105ab90612d57565b80601f01602080910402602001604051908101604052809291908181526020018280546105d790612d57565b80156106245780601f106105f957610100808354040283529160200191610624565b820191906000526020600020905b81548152906001019060200180831161060757829003601f168201915b5050505050815260200160068201805461063d90612d57565b80601f016020809104026020016040519081016040528092919081815260200182805461066990612d57565b80156106b65780601f1061068b576101008083540402835291602001916106b6565b820191906000526020600020905b81548152906001019060200180831161069957829003601f168201915b50505091835250506007820154602082015260088201546040820152600982015460609091019060ff1660048111156106f1576106f16124b0565b6004811115610702576107026124b0565b90525091505b50919050565b60086020526000908152604090208054600182015460028301546003840180549394929360ff909216929161074290612d57565b80601f016020809104026020016040519081016040528092919081815260200182805461076e90612d57565b80156107bb5780601f10610790576101008083540402835291602001916107bb565b820191906000526020600020905b81548152906001019060200180831161079e57829003601f168201915b505050506004830154600584015460068501546007909501549394919390925060ff81169061010090046001600160a01b031689565b6006602052600090815260409020805460018201546002830180549293919261081990612d57565b80601f016020809104026020016040519081016040528092919081815260200182805461084590612d57565b80156108925780601f1061086757610100808354040283529160200191610892565b820191906000526020600020905b81548152906001019060200180831161087557829003601f168201915b5050505050908060030154908060040180546108ad90612d57565b80601f01602080910402602001604051908101604052809291908181526020018280546108d990612d57565b80156109265780601f106108fb57610100808354040283529160200191610926565b820191906000526020600020905b81548152906001019060200180831161090957829003601f168201915b50505050509080600501805461093b90612d57565b80601f016020809104026020016040519081016040528092919081815260200182805461096790612d57565b80156109b45780601f10610989576101008083540402835291602001916109b4565b820191906000526020600020905b81548152906001019060200180831161099757829003601f168201915b5050505050908060060180546109c990612d57565b80601f01602080910402602001604051908101604052809291908181526020018280546109f590612d57565b8015610a425780601f10610a1757610100808354040283529160200191610a42565b820191906000526020600020905b815481529060010190602001808311610a2557829003601f168201915b50505050600783015460088401546009909401549293909290915060ff168a565b6000546001600160a01b03163314610a8d5760405162461bcd60e51b815260040161043190612d8b565b600081118015610a9f57506003548111155b610add5760405162461bcd60e51b815260206004820152600f60248201526e105b195c9d081b9bdd08199bdd5b99608a1b6044820152606401610431565b600081815260086020526040808220600701805460ff191660011790555182917fc84c34ab87bbec500f97b032e7c6cd13c48636b9662478b769c4d17b03ac9a7991a250565b6060600a805480602002602001604051908101604052809291908181526020018280548015610b7157602002820191906000526020600020905b815481526020019060010190808311610b5d575b5050505050905090565b60076020528160005260406000208181548110610b9757600080fd5b906000526020600020906006020160009150915050806000015490806001018054610bc190612d57565b80601f0160208091040260200160405190810160405280929190818152602001828054610bed90612d57565b8015610c3a5780601f10610c0f57610100808354040283529160200191610c3a565b820191906000526020600020905b815481529060010190602001808311610c1d57829003601f168201915b50505050600283015460038401546004850154600586018054959693959294506001600160a01b03821693600160a01b90920460ff1692610c7a90612d57565b80601f0160208091040260200160405190810160405280929190818152602001828054610ca690612d57565b8015610cf35780601f10610cc857610100808354040283529160200191610cf3565b820191906000526020600020905b815481529060010190602001808311610cd657829003601f168201915b5050505050905087565b606060076000838152602001908152602001600020805480602002602001604051908101604052809291908181526020016000905b82821015610ecf57838290600052602060002090600602016040518060e001604052908160008201548152602001600182018054610d6f90612d57565b80601f0160208091040260200160405190810160405280929190818152602001828054610d9b90612d57565b8015610de85780601f10610dbd57610100808354040283529160200191610de8565b820191906000526020600020905b815481529060010190602001808311610dcb57829003601f168201915b5050509183525050600282015460208201526003820154604082015260048201546001600160a01b0381166060830152600160a01b900460ff161515608082015260058201805460a090920191610e3e90612d57565b80601f0160208091040260200160405190810160405280929190818152602001828054610e6a90612d57565b8015610eb75780601f10610e8c57610100808354040283529160200191610eb7565b820191906000526020600020905b815481529060010190602001808311610e9a57829003601f168201915b50505050508152505081526020019060010190610d32565b505050509050919050565b600b8181548110610eea57600080fd5b600091825260209091200154905081565b600a8181548110610eea57600080fd5b610f136123e9565b600082118015610f2557506003548211155b610f635760405162461bcd60e51b815260206004820152600f60248201526e105b195c9d081b9bdd08199bdd5b99608a1b6044820152606401610431565b600082815260086020908152604091829020825161012081018452815481526001820154928101929092526002810154919290919083019060ff166003811115610faf57610faf6124b0565b6003811115610fc057610fc06124b0565b8152602001600382018054610fd490612d57565b80601f016020809104026020016040519081016040528092919081815260200182805461100090612d57565b801561104d5780601f106110225761010080835404028352916020019161104d565b820191906000526020600020905b81548152906001019060200180831161103057829003601f168201915b505050918352505060048201546020820152600582015460408201526006820154606082015260079091015460ff81161515608083015261010090046001600160a01b031660a09091015292915050565b6000546001600160a01b031633146110c85760405162461bcd60e51b815260040161043190612d8b565b6000821180156110da57506001548211155b6111185760405162461bcd60e51b815260206004820152600f60248201526e151c9d58dac81b9bdd08199bdd5b99608a1b6044820152606401610431565b6000918252600460208190526040909220909101805460ff1916911515919091179055565b60008181526009602090815260409182902080548351818402810184019094528084526060939283018282801561119357602002820191906000526020600020905b81548152602001906001019080831161117f575b50505050509050919050565b600080546001600160a01b031633146111ca5760405162461bcd60e51b815260040161043190612d8b565b600586866040516111dc929190612db2565b90815260200160405180910390205460001461123a5760405162461bcd60e51b815260206004820152601860248201527f506c61746520616c7265616479207265676973746572656400000000000000006044820152606401610431565b6001600160a01b0384166112835760405162461bcd60e51b815260206004820152601060248201526f24b73b30b634b21037b832b930ba37b960811b6044820152606401610431565b6001805490600061129383612dd8565b91905055506040518060c00160405280600154815260200187878080601f0160208091040260200160405190810160405280939291908181526020018383808284376000920191909152505050908252506001600160a01b03861660208083019190915260408051601f87018390048302810183018252868152920191908690869081908401838280828437600092018290525093855250506001602080850182905242604095860152815484526004815293909220845181559284015191830191611360915082612e3c565b5060408201516002820180546001600160a01b0319166001600160a01b039092169190911790556060820151600382019061139b9082612e3c565b50608082015160048201805460ff191691151591909117905560a0909101516005918201556001546040519091906113d69089908990612db2565b9081526020016040518091039020819055506001547f45f9f20d29ba9ba41c0f612af5b142c404f1ebf7994551768f0348bd90763f9087878760405161141e93929190612f25565b60405180910390a25060015495945050505050565b6004602052600090815260409020805460018201805491929161145590612d57565b80601f016020809104026020016040519081016040528092919081815260200182805461148190612d57565b80156114ce5780601f106114a3576101008083540402835291602001916114ce565b820191906000526020600020905b8154815290600101906020018083116114b157829003601f168201915b505050600284015460038501805494956001600160a01b039092169491935091506114f890612d57565b80601f016020809104026020016040519081016040528092919081815260200182805461152490612d57565b80156115715780601f1061154657610100808354040283529160200191611571565b820191906000526020600020905b81548152906001019060200180831161155457829003601f168201915b505050506004830154600590930154919260ff1691905086565b600960205281600052604060002081815481106115a757600080fd5b90600052602060002001600091509150505481565b600080546001600160a01b031633146115e75760405162461bcd60e51b815260040161043190612d8b565b6000881161162f5760405162461bcd60e51b8152602060048201526015602482015274546f6e73206d75737420626520706f73697469766560581b6044820152606401610431565b6002805490600061163f83612dd8565b9190505550600060025490506040518061014001604052808281526020018d81526020018c8c8080601f01602080910402602001604051908101604052809392919081815260200183838082843760009201919091525050509082525060208082018c905260408051601f8c0183900483028101830182528b8152920191908b908b9081908401838280828437600092019190915250505090825250604080516020601f8a0181900481028201810190925288815291810191908990899081908401838280828437600092019190915250505090825250604080516020601f880181900481028201810190925286815291810191908790879081908401838280828437600092018290525093855250504260208401525060408201819052606090910152600082815260066020908152604091829020835181559083015160018201559082015160028201906117959082612e3c565b5060608201516003820155608082015160048201906117b49082612e3c565b5060a082015160058201906117c99082612e3c565b5060c082015160068201906117de9082612e3c565b5060e08201516007820155610100820151600882015561012082015160098201805460ff19166001836004811115611818576118186124b0565b021790555050600a80546001810182556000919091527fc65a7bb8d6351c1cf70c95a316cc6a92839c986682d98bc35f958f4883f9d2a8018290555060405181907fc07b49bc93f3cf7faeec3096848964d5e2b2fe427d7ee3cb17f74745ed0fde099061188a908e908e908e90612f51565b60405180910390a29b9a5050505050505050505050565b6118e56040518060c00160405280600081526020016060815260200160006001600160a01b0316815260200160608152602001600015158152602001600081525090565b6000821180156118f757506001548211155b6119355760405162461bcd60e51b815260206004820152600f60248201526e151c9d58dac81b9bdd08199bdd5b99608a1b6044820152606401610431565b600460008381526020019081526020016000206040518060c00160405290816000820154815260200160018201805461196d90612d57565b80601f016020809104026020016040519081016040528092919081815260200182805461199990612d57565b80156119e65780601f106119bb576101008083540402835291602001916119e6565b820191906000526020600020905b8154815290600101906020018083116119c957829003601f168201915b505050918352505060028201546001600160a01b03166020820152600382018054604090920191611a1690612d57565b80601f0160208091040260200160405190810160405280929190818152602001828054611a4290612d57565b8015611a8f5780601f10611a6457610100808354040283529160200191611a8f565b820191906000526020600020905b815481529060010190602001808311611a7257829003601f168201915b5050509183525050600482015460ff161515602082015260059091015460409091015292915050565b6000546001600160a01b03163314611ae25760405162461bcd60e51b815260040161043190612d8b565b83600081118015611af557506002548111155b611b115760405162461bcd60e51b815260040161043190612d2b565b6000858152600660209081526040918290208251601f860183900483028101830190935284835291611b679188918891889088908190840183828082843760009201829052506003890154935091506121a59050565b6003856003811115611b7b57611b7b6124b0565b03611b905760098101805460ff191660041790555b505050505050565b85600081118015611bab57506002548111155b611bc75760405162461bcd60e51b815260040161043190612d2b565b6000546001600160a01b03163314611c125760405162461bcd60e51b815260206004820152600e60248201526d139bdd08185d5d1a1bdc9a5e995960921b6044820152606401610431565b600087815260066020526040812090600982015460ff166004811115611c3a57611c3a6124b0565b1480611c5e57506001600982015460ff166004811115611c5c57611c5c6124b0565b145b611caa5760405162461bcd60e51b815260206004820152601760248201527f536869706d656e74206e6f7420696e207472616e7369740000000000000000006044820152606401610431565b6000606482600301546002611cbf9190612f75565b611cc99190612f92565b90506000818360030154611cdd9190612fb4565b8710158015611cfb5750818360030154611cf79190612fc7565b8711155b9050600760008b81526020019081526020016000206040518060e001604052808c81526020018b8b8080601f01602080910402602001604051908101604052809392919081815260200183838082843760009201919091525050509082525060208082018b90524260408084019190915233606084015285151560808401528051601f8b0183900483028101830190915289815260a090920191908a908a90819084018382808284376000920182905250939094525050835460018181018655948252602091829020845160069092020190815590830151929390929083019150611de69082612e3c565b506040820151600282015560608201516003820155608082015160048201805460a08501511515600160a01b026001600160a81b03199091166001600160a01b039093169290921791909117905560c08201516005820190611e489082612e3c565b50505060098301805460ff191660011790556040518a907fee790051c482d56d3fc149ef4ac8b1690756b1a27fe932779422ab1d91ac3a8490611e90908c908c908690612fda565b60405180910390a280611f2457611f248a84600301548910611eb3576001611eb6565b60025b85600301548a10611eee576040518060400160405280600f81526020016e115610d154d4d7d111551150d51151608a1b815250611f19565b6040518060400160405280601181526020017014d213d4951051d157d111551150d51151607a1b8152505b86600301548b6121a5565b50505050505050505050565b6000546001600160a01b03163314611f5a5760405162461bcd60e51b815260040161043190612d8b565b81600081118015611f6d57506002548111155b611f895760405162461bcd60e51b815260040161043190612d2b565b60008381526006602052604090206003600982015460ff166004811115611fb257611fb26124b0565b03611ff35760405162461bcd60e51b8152602060048201526011602482015270105b1c9958591e4819195b1a5d995c9959607a1b6044820152606401610431565b6004600982015460ff16600481111561200e5761200e6124b0565b0361204d5760405162461bcd60e51b815260206004820152600f60248201526e14da1a5c1b595b9d081cd95a5e9959608a1b6044820152606401610431565b60006064826003015460026120629190612f75565b61206c9190612f92565b905060008183600301546120809190612fb4565b851015801561209e575081836003015461209a9190612fc7565b8511155b9050806120f7576120e38660036040518060400160405280601481526020017344454c49564552595f44495343524550414e435960601b8152508660030154896121a5565b60098301805460ff1916600217905561210d565b60098301805460ff191660031790554260088401555b857fdd3eafcd99a3f4d8b6ce7d52cf71f07a3e59d9d6c0b066eaa314812456b6b8558660405161213f91815260200190565b60405180910390a2505050505050565b6060600b805480602002602001604051908101604052809291908181526020018280548015610b715760200282019190600052602060002090815481526020019060010190808311610b5d575050505050905090565b600380549060006121b583612dd8565b919050555060405180610120016040528060035481526020018681526020018560038111156121e6576121e66124b0565b8152602001848152602001838152602001828152602001428152602001600015158152602001336001600160a01b0316815250600860006003548152602001908152602001600020600082015181600001556020820151816001015560408201518160020160006101000a81548160ff0219169083600381111561226c5761226c6124b0565b0217905550606082015160038201906122859082612e3c565b506080820151600482015560a0820151600582015560c0820151600682015560e082015160079091018054610100938401516001600160a81b0319909116921515610100600160a81b031916929092176001600160a01b03909216909202179055600085815260096020908152604080832060038054825460018181018555938752948620909401939093559154600b805493840181559093527f0175b7a638427703f0dbe7bb9bbf987a2551717b34e79f33b5b1008d1fa01db9909101829055518691907f4eac0ce836e27799e408e8d72d69b6c7e396c600606c7a6ad54c33c85e150c3b90612377908890613000565b60405180910390a35050505050565b604051806101400160405280600081526020016000815260200160608152602001600081526020016060815260200160608152602001606081526020016000815260200160008152602001600060048111156123e4576123e46124b0565b905290565b604051806101200160405280600081526020016000815260200160006003811115612416576124166124b0565b81526020016060815260200160008152602001600081526020016000815260200160001515815260200160006001600160a01b031681525090565b60006020828403121561246357600080fd5b5035919050565b6000815180845260005b8181101561249057602081850181015186830182015201612474565b506000602082860101526020601f19601f83011685010191505092915050565b634e487b7160e01b600052602160045260246000fd5b600581106124d6576124d66124b0565b9052565b6020815281516020820152602082015160408201526000604083015161014080606085015261250d61016085018361246a565b9150606085015160808501526080850151601f19808685030160a0870152612535848361246a565b935060a08701519150808685030160c0870152612552848361246a565b935060c08701519150808685030160e087015250612570838261246a565b60e0870151610100878101919091528701516101208088019190915287015190935090506125a0828601826124c6565b5090949350505050565b600481106124d6576124d66124b0565b60006101208b83528a60208401526125d5604084018b6125aa565b8060608401526125e78184018a61246a565b6080840198909852505060a081019490945260c0840192909252151560e08301526001600160a01b031661010090910152949350505050565b60006101408c83528b60208401528060408401526126408184018c61246a565b9050896060840152828103608084015261265a818a61246a565b905082810360a084015261266e818961246a565b905082810360c0840152612682818861246a565b9150508460e0830152836101008301526126a06101208301846124c6565b9b9a5050505050505050505050565b6020808252825182820181905260009190848201906040850190845b818110156126e7578351835292840192918401916001016126cb565b50909695505050505050565b6000806040838503121561270657600080fd5b50508035926020909101359150565b87815260e06020820152600061272e60e083018961246a565b60408301889052606083018790526001600160a01b038616608084015284151560a084015282810360c0840152612765818561246a565b9a9950505050505050505050565b60006020808301818452808551808352604092508286019150828160051b87010184880160005b8381101561282b57603f19898403018552815160e08151855288820151818a8701526127c88287018261246a565b838a0151878b0152606080850151908801526080808501516001600160a01b03169088015260a08085015115159088015260c0938401518782039488019490945291506128179050818361246a565b96890196945050509086019060010161279a565b509098975050505050505050565b6020815281516020820152602082015160408201526000604083015161286260608401826125aa565b50606083015161012080608085015261287f61014085018361246a565b9150608085015160a085015260a085015160c085015260c085015160e085015260e08501516101006128b48187018315159052565b8601516001600160a01b0381168387015290506125a0565b600080604083850312156128df57600080fd5b82359150602083013580151581146128f657600080fd5b809150509250929050565b634e487b7160e01b600052604160045260246000fd5b60006020828403121561292957600080fd5b813567ffffffffffffffff8082111561294157600080fd5b818401915084601f83011261295557600080fd5b81358181111561296757612967612901565b604051601f8201601f19908116603f0116810190838211818310171561298f5761298f612901565b816040528281528760208487010111156129a857600080fd5b826020860160208301376000928101602001929092525095945050505050565b60008083601f8401126129da57600080fd5b50813567ffffffffffffffff8111156129f257600080fd5b602083019150836020828501011115612a0a57600080fd5b9250929050565b600080600080600060608688031215612a2957600080fd5b853567ffffffffffffffff80821115612a4157600080fd5b612a4d89838a016129c8565b9097509550602088013591506001600160a01b0382168214612a6e57600080fd5b90935060408701359080821115612a8457600080fd5b50612a91888289016129c8565b969995985093965092949392505050565b86815260c060208201526000612abb60c083018861246a565b6001600160a01b03871660408401528281036060840152612adc818761246a565b9415156080840152505060a00152949350505050565b60008060008060008060008060008060c08b8d031215612b1157600080fd5b8a35995060208b013567ffffffffffffffff80821115612b3057600080fd5b612b3c8e838f016129c8565b909b50995060408d0135985060608d0135915080821115612b5c57600080fd5b612b688e838f016129c8565b909850965060808d0135915080821115612b8157600080fd5b612b8d8e838f016129c8565b909650945060a08d0135915080821115612ba657600080fd5b50612bb38d828e016129c8565b915080935050809150509295989b9194979a5092959850565b60208152815160208201526000602083015160c06040840152612bf260e084018261246a565b60408501516001600160a01b0316606085810191909152850151848203601f19016080860152909150612c25828261246a565b9150506080840151151560a084015260a084015160c08401528091505092915050565b60008060008060608587031215612c5e57600080fd5b84359350602085013560048110612c7457600080fd5b9250604085013567ffffffffffffffff811115612c9057600080fd5b612c9c878288016129c8565b95989497509550505050565b60008060008060008060808789031215612cc157600080fd5b86359550602087013567ffffffffffffffff80821115612ce057600080fd5b612cec8a838b016129c8565b9097509550604089013594506060890135915080821115612d0c57600080fd5b50612d1989828a016129c8565b979a9699509497509295939492505050565b60208082526012908201527114da1a5c1b595b9d081b9bdd08199bdd5b9960721b604082015260600190565b600181811c90821680612d6b57607f821691505b60208210810361070857634e487b7160e01b600052602260045260246000fd5b6020808252600d908201526c2737ba103932b3bab630ba37b960991b604082015260600190565b8183823760009101908152919050565b634e487b7160e01b600052601160045260246000fd5b600060018201612dea57612dea612dc2565b5060010190565b601f821115612e3757600081815260208120601f850160051c81016020861015612e185750805b601f850160051c820191505b81811015611b9057828155600101612e24565b505050565b815167ffffffffffffffff811115612e5657612e56612901565b612e6a81612e648454612d57565b84612df1565b602080601f831160018114612e9f5760008415612e875750858301515b600019600386901b1c1916600185901b178555611b90565b600085815260208120601f198616915b82811015612ece57888601518255948401946001909101908401612eaf565b5085821015612eec5787850151600019600388901b60f8161c191681555b5050505050600190811b01905550565b81835281816020850137506000828201602090810191909152601f909101601f19169091010190565b604081526000612f39604083018587612efc565b905060018060a01b0383166020830152949350505050565b604081526000612f65604083018587612efc565b9050826020830152949350505050565b8082028115828204841417612f8c57612f8c612dc2565b92915050565b600082612faf57634e487b7160e01b600052601260045260246000fd5b500490565b81810381811115612f8c57612f8c612dc2565b80820180821115612f8c57612f8c612dc2565b604081526000612fee604083018587612efc565b90508215156020830152949350505050565b60208101612f8c82846125aa56fea2646970667358221220b2459bb02d4255f714f84fa6a489f31fb5122a4c0c2dc50e9ad51d6de5fb0b5164736f6c63430008130033",
  "immutableReferences": {},
  "source": "// SPDX-License-Identifier: MIT\npragma solidity ^0.8.19;\n\ncontract TruckTracking {\n    enum ShipmentStatus { Dispatched, InTransit, Flagged, Delivered, Seized }\n    enum AlertSeverity  { Low, Medium, High, Critical }\n\n    struct Truck {\n        uint256 id;\n        string plateNumber;\n        address operator;\n        string mongoId;\n        bool active;\n        uint256 registeredAt;\n    }\n\n    struct Manifest {\n        uint256 shipmentId;\n        uint256 concessionBlockchainId;\n        string  truckMongoId;\n        uint256 authorizedTons;\n        string  originLocation;\n        string  destinationLocation;\n        string  sealHash;          // SHA-256 of manifest data — tamper proof\n        uint256 dispatchedAt;\n        uint256 deliveredAt;\n        ShipmentStatus status;\n    }\n\n    struct Checkpoint {\n        uint256 shipmentId;\n        string  location;\n        uint256 reportedTons;\n        uint256 timestamp;\n        address scanner;\n        bool    tonsMatch;\n        string  notes;\n    }\n\n    struct TheftAlert {\n        uint256 id;\n        uint256 shipmentId;\n        AlertSeverity severity;\n        string  reason;\n        uint256 expectedTons;\n        uint256 reportedTons;\n        uint256 raisedAt;\n        bool    resolved;\n        address raisedBy;\n    }\n\n    address public regulator;\n    uint256 private nextTruckId;\n    uint256 private nextShipmentId;\n    uint256 private nextAlertId;\n\n    mapping(uint256 => Truck)         public trucks;\n    mapping(string  => uint256)       public plateToTruckId;   // plateNumber → truckId\n    mapping(uint256 => Manifest)      public shipments;\n    mapping(uint256 => Checkpoint[])  public checkpoints;\n    mapping(uint256 => TheftAlert)    public alerts;\n    mapping(uint256 => uint256[])     public shipmentAlerts;   // shipmentId → alertIds\n\n    uint256[] public allShipmentIds;\n    uint256[] public allAlertIds;\n\n    event TruckRegistered(uint256 indexed id, string plateNumber, address operator);\n    event ShipmentDispatched(uint256 indexed id, string truckMongoId, uint256 authorizedTons);\n    event CheckpointScanned(uint256 indexed shipmentId, string location, bool tonsMatch);\n    event TheftAlertRaised(uint256 indexed alertId, uint256 indexed shipmentId, AlertSeverity severity);\n    event AlertResolved(uint256 indexed alertId);\n    event ShipmentDelivered(uint256 indexed id, uint256 finalTons);\n\n    modifier onlyRegulator() { require(msg.sender == regulator, \"Not regulator\"); _; }\n    modifier shipmentExists(uint256 id) { require(id > 0 && id <= nextShipmentId, \"Shipment not found\"); _; }\n\n    constructor() { regulator = msg.sender; }\n\n    // ─── Truck Registration ───────────────────────────────────────────────────\n\n    function registerTruck(\n        string calldata plateNumber,\n        address operator,\n        string calldata mongoId\n    ) external onlyRegulator returns (uint256) {\n        require(plateToTruckId[plateNumber] == 0, \"Plate already registered\");\n        require(operator != address(0), \"Invalid operator\");\n        nextTruckId++;\n        trucks[nextTruckId] = Truck({\n            id: nextTruckId,\n            plateNumber: plateNumber,\n            operator: operator,\n            mongoId: mongoId,\n            active: true,\n            registeredAt: block.timestamp\n        });\n        plateToTruckId[plateNumber] = nextTruckId;\n        emit TruckRegistered(nextTruckId, plateNumber, operator);\n        return nextTruckId;\n    }\n\n    function setTruckActive(uint256 truckId, bool active) external onlyRegulator {\n        require(truckId > 0 && truckId <= nextTruckId, \"Truck not found\");\n        trucks[truckId].active = active;\n    }\n\n    // ─── Shipment Dispatch ────────────────────────────────────────────────────\n\n    function dispatchShipment(\n        uint256 concessionBlockchainId,\n        string calldata truckMongoId,\n        uint256 authorizedTons,\n        string calldata originLocation,\n        string calldata destinationLocation,\n        string calldata sealHash\n    ) external onlyRegulator returns (uint256) {\n        require(authorizedTons > 0, \"Tons must be positive\");\n        nextShipmentId++;\n        uint256 id = nextShipmentId;\n        shipments[id] = Manifest({\n            shipmentId: id,\n            concessionBlockchainId: concessionBlockchainId,\n            truckMongoId: truckMongoId,\n            authorizedTons: authorizedTons,\n            originLocation: originLocation,\n            destinationLocation: destinationLocation,\n            sealHash: sealHash,\n            dispatchedAt: block.timestamp,\n            deliveredAt: 0,\n            status: ShipmentStatus.Dispatched\n        });\n        allShipmentIds.push(id);\n        emit ShipmentDispatched(id, truckMongoId, authorizedTons);\n        return id;\n    }\n\n    // ─── Checkpoint Scan ──────────────────────────────────────────────────────\n\n    function recordCheckpoint(\n        uint256 shipmentId,\n        string calldata location,\n        uint256 reportedTons,\n        string calldata notes\n    ) external shipmentExists(shipmentId) {\n        require(\n            msg.sender == regulator,\n            \"Not authorized\"\n        );\n        Manifest storage m = shipments[shipmentId];\n        require(\n            m.status == ShipmentStatus.Dispatched || m.status == ShipmentStatus.InTransit,\n            \"Shipment not in transit\"\n        );\n\n        // Allow ±2% tolerance\n        uint256 tolerance = m.authorizedTons * 2 / 100;\n        bool tonsMatch = reportedTons >= m.authorizedTons - tolerance &&\n                     reportedTons <= m.authorizedTons + tolerance;\n\n        checkpoints[shipmentId].push(Checkpoint({\n            shipmentId: shipmentId,\n            location: location,\n            reportedTons: reportedTons,\n            timestamp: block.timestamp,\n            scanner: msg.sender,\n            tonsMatch: tonsMatch,\n            notes: notes\n        }));\n\n        m.status = ShipmentStatus.InTransit;\n        emit CheckpointScanned(shipmentId, location,tonsMatch);\n\n        // Auto-raise alert if tons don't match\n        if (!tonsMatch) {\n            _raiseAlert(\n                shipmentId,\n                reportedTons < m.authorizedTons ? AlertSeverity.High : AlertSeverity.Medium,\n                reportedTons < m.authorizedTons ? \"SHORTAGE_DETECTED\" : \"EXCESS_DETECTED\",\n                m.authorizedTons,\n                reportedTons\n            );\n        }\n    }\n\n    // ─── Delivery Confirmation ────────────────────────────────────────────────\n\n    function confirmDelivery(\n        uint256 shipmentId,\n        uint256 finalTons\n    ) external onlyRegulator shipmentExists(shipmentId) {\n        Manifest storage m = shipments[shipmentId];\n        require(m.status != ShipmentStatus.Delivered, \"Already delivered\");\n        require(m.status != ShipmentStatus.Seized, \"Shipment seized\");\n\n        uint256 tolerance = m.authorizedTons * 2 / 100;\n        bool tonsMatch = finalTons >= m.authorizedTons - tolerance &&\n                     finalTons <= m.authorizedTons + tolerance;\n\n        if (!tonsMatch) {\n            _raiseAlert(\n                shipmentId,\n                AlertSeverity.Critical,\n                \"DELIVERY_DISCREPANCY\",\n                m.authorizedTons,\n                finalTons\n            );\n            m.status = ShipmentStatus.Flagged;\n        } else {\n            m.status = ShipmentStatus.Delivered;\n            m.deliveredAt = block.timestamp;\n        }\n\n        emit ShipmentDelivered(shipmentId, finalTons);\n    }\n\n    // ─── Manual Alert & Resolution ────────────────────────────────────────────\n\n    function raiseManualAlert(\n        uint256 shipmentId,\n        AlertSeverity severity,\n        string calldata reason\n    ) external onlyRegulator shipmentExists(shipmentId) {\n        Manifest storage m = shipments[shipmentId];\n        _raiseAlert(shipmentId, severity, reason, m.authorizedTons, 0);\n        if (severity == AlertSeverity.Critical) {\n            m.status = ShipmentStatus.Seized;\n        }\n    }\n\n    function resolveAlert(uint256 alertId) external onlyRegulator {\n        require(alertId > 0 && alertId <= nextAlertId, \"Alert not found\");\n        alerts[alertId].resolved = true;\n        emit AlertResolved(alertId);\n    }\n\n    // ─── Internal ─────────────────────────────────────────────────────────────\n\n    function _raiseAlert(\n        uint256 shipmentId,\n        AlertSeverity severity,\n        string memory reason,\n        uint256 expected,\n        uint256 reported\n    ) internal {\n        nextAlertId++;\n        alerts[nextAlertId] = TheftAlert({\n            id: nextAlertId,\n            shipmentId: shipmentId,\n            severity: severity,\n            reason: reason,\n            expectedTons: expected,\n            reportedTons: reported,\n            raisedAt: block.timestamp,\n            resolved: false,\n            raisedBy: msg.sender\n        });\n        shipmentAlerts[shipmentId].push(nextAlertId);\n        allAlertIds.push(nextAlertId);\n        emit TheftAlertRaised(nextAlertId, shipmentId, severity);\n    }\n\n    // ─── Views ────────────────────────────────────────────────────────────────\n\n    function getShipment(uint256 id) external view shipmentExists(id) returns (Manifest memory) {\n        return shipments[id];\n    }\n\n    function getCheckpoints(uint256 shipmentId) external view returns (Checkpoint[] memory) {\n        return checkpoints[shipmentId];\n    }\n\n    function getShipmentAlerts(uint256 shipmentId) external view returns (uint256[] memory) {\n        return shipmentAlerts[shipmentId];\n    }\n\n    function getAlert(uint256 alertId) external view returns (TheftAlert memory) {\n        require(alertId > 0 && alertId <= nextAlertId, \"Alert not found\");\n        return alerts[alertId];\n    }\n\n    function getAllShipmentIds() external view returns (uint256[] memory) {\n        return allShipmentIds;\n    }\n\n    function getAllAlertIds() external view returns (uint256[] memory) {\n        return allAlertIds;\n    }\n\n    function getTruckById(uint256 truckId) external view returns (Truck memory) {\n        require(truckId > 0 && truckId <= nextTruckId, \"Truck not found\");\n        return trucks[truckId];\n    }\n\n    function getTotals() external view returns (uint256 totalTrucks, uint256 totalShipments, uint256 totalAlerts) {\n        return (nextTruckId, nextShipmentId, nextAlertId);\n    }\n}\n",
  "sourcePath": "/home/shrilakshmi/Documents/coal-mining/contracts/TruckTracking.sol",
  "compiler": {
    "name": "solc",
    "version": "0.8.19+commit.7dd6d404.Emscripten.clang"
  },
  "schemaVersion": "3.4.16",
  "updatedAt": "2026-04-27T07:08:43.271Z",
  "networkType": "ethereum",
  "devdoc": {
    "kind": "dev",
    "methods": {},
    "version": 1
  },
  "userdoc": {
    "kind": "user",
    "methods": {},
    "version": 1
  }
}